:020000040800F2
:100000008805002095480008F1440008F3440008E2
:10001000F5440008F7440008F94400080000000017
:10002000000000000000000000000000171500089C
:10003000FB44000800000000D1140008690C00080F
:10004000C5480008C9480008CD480008D148000844
:10005000D5480008D9480008DD480008E1480008F4
:10006000E5480008E9480008ED480008F1480008A4
:10007000F5480008F9480008FD4800080149000853
:1000800005490008094900080D4900081149000800
:1000900015490008194900081D49000821490008B0
:1000A00025490008294900082D4900083149000860
:1000B000FD44000835490008394900083D49000859
:1000C0004149000845490008494900084D490008D0
:1000D00051490008034500082D45000883450008E4
:1000E00055490008594900085D490008F0B585B038
:1000F00050260B9D25B986F3118800F09EFBFEE784
:100100000C9C24B986F3118800F097FBFEE75C276E
:100110000097009F5C2F04D086F3118800F08DFBC0
:10012000FEE70A9E2563022584F8595002940025B3
:100130000395009604AD019500F034F8204600F0D8
:1001400077F8049805B0F0BD2DE9F0430646174650
:1001500085B089469846B80000F0BEFB05001CD06B
:100160005C2000F0B9FB040014D00020256384F863
:100170005900039002940D980C9901900091434608
:100180003A464946304600F00DF8204600F050F857
:10019000012004E0284600F028FC4FF0FF3005B0B5
:1001A000BDE8F0832DE9F0470A9D81460C461746CD
:1001B000286B9846A522B90000F066FC286B00EB7E
:1001C00087010F1FFF08FF000021605C6A1882F89A
:1001D0003400605C10B1491C1029F6D3089E002041
:1001E00085F843001F2E099C88BF1F2605F14C0A85
:1001F000EE62CAF80400CAF80060281D00F06EFC28
:1002000005F1180000F06AFC2D61C6F12006AE6110
:100210006D620020CAF808008AF80C004246494680
:10022000384600F097FC286004B12560BDE8F087EF
:100230002DE9F04100F06BF8DFF8F055DFF8F085BC
:10024000E86C401CE8641426A86A28BBAC62E86C21
:10025000012829D1002706FB07F0404400F031FCBB
:100260007F1C202FF7D305F1740000F02AFC05F164
:100270008807384600F025FC284600F022FC05F1EE
:10028000140000F01EFC05F1380000F01AFC05F126
:100290007400E8622F6307E0A86D28B9E16AA86AD4
:1002A000C26A914228BFAC62A86E401CA866606416
:1002B000E06A696D814238BF68654643211D08EBDD
:1002C000060000F00EFC00F0BEFCA86D30B100F09E
:1002D000E3F903D200F01EF800F0AFFABDE8F081B8
:1002E00080B578B1DFF84425116F11B100F0A2FAA2
:1002F000FEE7116F491C1167002100F0BAFA00F007
:100300004CF818B900F006F800F097FA01BD044661
:1003100000F080BCDFF84C154FF08050086070474B
:1003200000B587B000200590049003AA04A905A891
:1003300000F0A6FE05990498029100220092019017
:100340000023039A0FF288510FF2D930FFF7CEFE47
:1003500098B100F0AFFE5021012810D181F311882F
:1003600000F06BFADFF858054FF0FF31C16601214C
:1003700081650021016500F011FC07B000BD10F19E
:10038000010FFAD181F3118800F057FAFEE7DFF888
:100390003005016F491C0167704770B5DFF88C6448
:1003A000306F0024002520B900F043F800F045FA32
:1003B000FEE700F02FFC306F401E3067316F0029E0
:1003C00036D1F06CD0B933E0F168CC6800F035F884
:1003D00000F0FAF9E06A716DDFF8E824814238BF75
:1003E000706514235843211D104400F07AFBE06A25
:1003F000B16ACA6A904224BF012030663068002882
:10040000E2D10CB100F0C7F9F46D3CB100F024F872
:1004100008B101203066641EF8D1F565306E38B140
:10042000DFF840044FF080510125016000F005FA2B
:1004300013E2502181F31188704704F1180000F095
:1004400075BBDFF87C04006D704780B500F022FCBE
:10045000DFF86C04006D02BD2DE9F843DFF8CC73C2
:10046000386F002500284ED13C6D641C3C6510D1CE
:10047000F86A006820B1FFF7DCFF00F0DEF9FEE764
:10048000F86A396BF9623863786E401C786600F060
:1004900082F9F86EDFF82C9484424FF0140824D3CC
:1004A00019E0301D00F042FBB06A18B106F11800E7
:1004B00000F03CFBF06A796D814238BF786508FB3B
:1004C00000F0311D484400F00CFBF06AB96ACA6ABA
:1004D000904228BF0125F86A006880B1F96AC868AF
:1004E000C66870688442DCD2F866B86AC06A08FBE5
:1004F00000F159F80100022808D3012506E04FF069
:10050000FF31F966F1E7F86D401CF865386E00B10F
:1005100001252846BDE8F28310B5DFF81023106FDF
:1005200010B10121116610BD1066516DDFF89433D2
:1005300000E0491E14244C43185930B90029F8D161
:10054000FFF777FF00F079F9FEE7181900F10804CA
:1005500043685B684360A34204BF5B6843604068D4
:10056000C3689362516510BD10B50C4610B900F018
:1005700061F9FEE700F039F800F0BFFA2046BDE867
:1005800010401DE038B51446502320B983F311887C
:1005900000F053F9FEE7DFF894522A6F22B983F393
:1005A000118800F04AF9FEE7AA6A41F00041916122
:1005B000AB6A03F1180100F094FA2046BDE834401C
:1005C000012156E138B50D46144610B900F032F954
:1005D000FEE700F00AF800F084FA0CB14FF0FF35A6
:1005E00021462846BDE8344043E1DFF8D422936A2F
:1005F00003F11801704738B5C068C46814B900F039
:1006000019F9FEE7FFF719FFDFF8B452286F40B978
:1006100000F0DAF800F03AF838BF6A6500F024F923
:1006200002E004F11801284600F05BFAA86AC16AEA
:10063000E06A814202D20120286632BD002032BD2C
:1006400038B5DFF87C520A46296F502321B983F36D
:10065000118800F0F2F8FEE742F000420260C46840
:1006600024B983F3118800F0E8F8FEE700F05EFAA1
:1006700000F0AAF800F00AF838BF6A6500F011F837
:1006800000F00AF83CBF0120286631BDE26A686DBF
:10069000DFF8303290427047A96AC86AE16A88423E
:1006A000704714204243211D981800F01ABADFF851
:1006B00010124A6E0260096D41607047F8B5044639
:1006C0000D46502014B900F0B6F8FEE715B900F059
:1006D000B2F8FEE700F09EFADFF8E401016D62680F
:1006E0002E688B1A16F1010F0ED0476ED4F800C099
:1006F000674501D091420BD2B34207D2F31A2B6067
:10070000416E2160006D6060002402E000202860DE
:10071000012400F098FA2046F2BDDFF8A411012070
:100720000866704770B5424C404D11E000F072FA17
:10073000286AC668301D00F0F9F9E86C401EE864CC
:10074000686B401E686300F07EFA304600F00EF8D9
:10075000686B0028EAD121680229F9D3DFF8042167
:100760004FF08050106000F068F8F1E710B50446D3
:1007700094F8590040B9206B00F037F92046BDE8E5
:10078000104000F032B910BD0128F7D00228FAD08D
:1007900000F050F8FEE72549C86A006810B94FF02C
:1007A000FF3203E0C86AC268D0684268CA66704710
:1007B000DFF80C11886D08B901207047086F08B97F
:1007C0000220704700207047201D00F0AFB938B5F7
:1007D0000446002144B3154DA86A5022844204D037
:1007E00082F3118800F029F8FEE7206D20B982F32A
:1007F000118800F022F8FEE7E26AE36C401E9A429C
:10080000206511D080B9FFF7DFFFE06CDFF8B4306E
:10081000E062C0F12000A061E26A686D904238BFDA
:100820006A65FFF73EFF0121084632BDB43500205E
:10083000FC290020502080F31188BFF34F8FBFF3B5
:100840006F8F7047DFF87810886A80698A6A896AD2
:10085000CB6AC3F120039361704700F0F4F9284696
:1008600070BD000004ED00E014204243211D9818E3
:100870007047F8B5124D2F6D0C46A96A0646081D43
:1008800000F054F916F1010F05D124B1A86A011D39
:1008900005F1380018E0A86AF6194660BE42A86A59
:1008A00005D2011D286BBDE8F44000F026B9011DFA
:1008B000E86A00F022F9E86E864238BFEE66F1BDC4
:1008C000B4350020FC290020BDE8F44000F009B94F
:1008D00049444C45000000002DE9F8430446FFF769
:1008E00056FD684FB8684FF00008002508BB07F1B7
:1008F000180307F1180113F0070F4FF400500A46D0
:1009000005D0CA1DD208D200C2F5005008188018C0
:1009100008383A60C0087D60C000B8604560056076
:10092000811A5160106050683861F8604FF00040E3
:1009300078614FF050097869044233D194B3083498
:1009400014F0070F1FBF04F1080004F00704041B94
:1009500014F0070F02D000F041F8FEE714B3F86876
:10096000A0421FD33E6839467068A04223D2306847
:1009700000281CBF31460646F6D11CE0301D02514E
:100980007460084600F05AF87168F868401AF86018
:100990003A69904238BF38617869014371603560C7
:1009A00008F00705FFF7F9FC15B100F017F8FEE7AE
:1009B0004046BDE8F283B8688642F3D032680868E2
:1009C0000A6000F108087268121B112ADCD3311981
:1009D00011F00700D2D000F001F8FEE789F311888A
:1009E000BFF34F8FBFF36F8F704738B5F0B1A0F1F1
:1009F0000804244D61686A695023114202D100F055
:100A000016F8FEE7206810B100F011F8FEE79143F8
:100A10006160FFF7BCFCE96860684118E960204646
:100A200000F00CF8BDE83140FFF7B7BC31BD83F3EF
:100A30001188BFF34F8FBFF36F8F704730B51149E7
:100A40000A4600E01A4613688342FBD35368D41861
:100A5000844203D14068C318536010464368146849
:100A6000C518A54208D189688C4204D06168CB18AA
:100A70004360246800E00C460460824218BF1060A6
:100A800030BD00008805002062F30F2262F31F4290
:100A900000B500BF130096469446103928BFA0E861
:100AA0000C50FAD85FEA417C28BF0CC048BF40F820
:100AB000042BC90728BF20F8022B48BF00F8012BE0
:100AC00000BD00F1080141604FF0FF31816000F18D
:100AD0000801C160016100210160704700210161CE
:100AE000704742684A6093688B6093685960916070
:100AF00008610168491C0160704730B50A6812F14D
:100B0000010F08BF036907D000F1080300E0234686
:100B10005C682568AA42FAD25A684A6091608B6084
:100B2000596008610168491C016030BD4368016972
:100B300082689A60836842685A604A68824204BF49
:100B400082684A60002202610868401E08600868E6
:100B500070477047490810B54900A0F10C034FF0E9
:100B6000807459609C600FF20D01196040F8202DCF
:100B7000203810BD58494A68502012F1010F06D0A4
:100B800080F31188BFF34F8FBFF36F8FFEE780F3C1
:100B90001188BFF34F8FBFF36F8FFEE71CB54F482F
:100BA0004D4C01780191FF22027002788DF80020EF
:100BB00007229DF80010A26001F05001217006E0AC
:100BC000491EA1609DF8001049008DF80010A16831
:100BD0009DF800201306F3D4C1F10702042A02D0C5
:100BE00000F050F8FEE7090201F4E061A16001990C
:100BF00001703B48016841F470010160026842F0F5
:100C00007042026000F074F80020606000F093FC15
:100C1000002016BD502080F31188BFF34F8FBFF323
:100C20006F8F2D494A68521C012A4A600AD12D490A
:100C30000A68130606D080F31188BFF34F8FBFF305
:100C40006F8FFEE770472449486838B9502080F319
:100C50001188BFF34F8FBFF36F8FFEE7401E4860D0
:100C600008BF80F31188704780B500F00BF8FFF7DC
:100C7000F3FB18B11B494FF080500860002181F34D
:100C8000118801BD502080F31188BFF34F8FBFF34F
:100C90006F8F7047EFF30580502110280E4A0BD359
:100CA000114B185C1378984206D281F31188BFF378
:100CB0004F8FBFF36F8FFEE790680C4A136803F401
:100CC000E063984206D281F31188BFF34F8FBFF3E0
:100CD0006F8FFEE770470000AC00002000E400E0EA
:100CE00020ED00E004ED00E0F0E300E00CED00E0BA
:100CF00007480021016081604FF47A7305490A6852
:100D0000B2FBF3F35B1E436007210160704700BF35
:100D100010E000E0C4000020EFF30580002804BFCD
:100D2000EFF31080002800D075E0DFF8E0120868CB
:100D300010B901220A6070474FF0FF307047EFF39F
:100D4000058080B5002804BFEFF31080002800D094
:100D50000BE0DFF8B8020168012905D10222026028
:100D6000FFF7DEFA002002BD02E06FF0050002BDD1
:100D70004FF0FF3002BDF0B585B000230493EFF3D0
:100D80000583002B04BFEFF31083002B40D1030039
:100D90003ED00023802518268DF80C3003AC5AB3C2
:100DA000136803B11C4693691BB11E0004D0392E91
:100DB00002D21379DF0701D500202AE0536903B17D
:100DC0009D08D2F80CC0976887B1BCF15C0F1FD3A7
:100DD0001269002A18BF002B1AD001920B46029705
:100DE00000962A462146FFF781F910E0BCF1000F7A
:100DF00004BF1269002A0BD104AB019300960B4685
:100E0000AAB22146FFF7A0F9012801D000200490E2
:100E1000049805B0F0BD6FF0050070470446EFF38D
:100E200005800028704710B500F0E3F806BFEFF327
:100E3000108100296FF0050403D1002408B1FFF7E9
:100E40004FFA204610BD80B500F018FB010004D019
:100E500048680968BDE80440084701BD2DE9FC4128
:100E600007460025FFF7DBFF04BFEFF310800028E3
:100E70000E4690461C461DD1E7B10820FFF72CFD19
:100E8000030017D032001F6018BF0122C3F804808E
:100E90000020DFF8146294B1216801B10846E168CE
:100EA000A46854B1302905D301940096012100F0C3
:100EB00041F905462846BDE8F6810029FAD1009699
:100EC000012100F01DF9F4E70021EFF3058280B560
:100ED000002A04BFEFF31082002A08D158B1C2687B
:100EE000806830B1202A02D300F036FB0146084664
:100EF00002BD002AFBD100F048FBF7E710B582B035
:100F00000C4610B114F07F4F02D06FF0030419E0CB
:100F100000F06FF804BFEFF3108100290ED000211C
:100F200000916A46214600F02AFC10B16FF00204DD
:100F300008E0009830B100F060F803E0214600F0CE
:100F4000D8FB0446204616BD70B504000D4602D0FD
:100F500015F07F4F02D06FF0030616E0FFF75FFF3A
:100F600004BFEFF3108000280BD0204600F0B4FB44
:100F700006462946204600F0A8FB30B96FF002066D
:100F800003E0204600F082FB0646304670BD70B597
:100F900082B00D4616461C4610B115F07F4F02D0A8
:100FA0006FF0030076BD00F024F804BFEFF310816A
:100FB000002902D06FF0050076BD520802F0010250
:100FC000009406F0010382F00102294600F0ECFAD9
:100FD000F3076FF002016FF0010202D5854206D0DF
:100FE00001E0054203D10CB1104676BD084676BD3E
:100FF0000024EFF30581002970472A4A4FF0805101
:101000001160BFF34F8FBFF36F8F704768370020B9
:10101000F8B5144600F02FF804BFEFF31082002A51
:1010200027D1002818BF002923D0E4B1E268A368C3
:1010300093B1502A1DD32269DAB1666901FB00F72A
:10104000BE4216D3009500F0DFFB050011D0002C46
:1010500014BF216800210AE0002A04BF2369002B85
:1010600007D162692AB9002200F0FDFBEDE700F02C
:101070003EFE2846F2BD0025EFF30582002A7047A8
:101080000A4B036003F15C00086080201060704729
:10109000074B036003F15C0008604FF48070106040
:1010A0007047000004ED00E0470E00087C2C002093
:1010B000A025002010B586B000F0B7F9DFF8F8439E
:1010C000A068D0B100210591049103AA04A905A844
:1010D000FFF7DEFF0598049902901E22009201910D
:1010E0000023039A0FF2D8310FF21110FEF7FEFF22
:1010F000E06010B1012006B010BD00F08EF9FEE7EF
:101100002DE9FC4105460E46174698463020FFF76C
:10111000E3FB04000BD008980090019443463A4644
:101120003146284600F027F8002084F82C0020469D
:10113000BDE8F68130B583B0302400945025009C82
:10114000302C02D000F010F8FEE7079C14B900F034
:101150000BF8FEE7069D0194009500F00CF80120C5
:1011600084F82C0020463EBD85F31188BFF34F8FD5
:10117000BFF36F8F70472DE9F0410D00064617460B
:10118000984602D100F049F9FEE7079C6CB100F0E7
:101190004CF92660A561E761C4F82080069860627A
:1011A000201DBDE8F041FFF799BCBDE8F081F0B526
:1011B000044685B01E46002014B900F02EF9FEE763
:1011C000DFF8F472BD68BDB1062900910192029466
:1011D0000CDAFFF7EDFA0228B86807BF00230A9A75
:1011E00000230022694600F074FB05E0002332462C
:1011F0006946284600F007FC05B0F0BD80B5AE4951
:101200000A68106800281DBF0021D068006801210D
:1012100000F003F800F0A4F8F1E7F0B583B005465C
:101220000C46FFF7B4F801A800F042F80646019812
:1012300000283AD1A04F24BBAE4227D3FFF7ADF828
:101240003868C168CC68201DFFF770FCE069012890
:1012500013D1A1692B4632464919204600F065F8A2
:1012600058B10020009000232A4600212046FFF7B5
:101270009EFF10B900F0D1F8FEE7616A204688476A
:10128000F7BD786801684C1EA441E40FB868224697
:10129000A91B00F041FDFFF780F840B987494FF0E6
:1012A00080500860FFF762FFF7BDFFF776F8F7BDE3
:1012B0002DE9F04182B00446FFF7C3F87E4E0546A3
:1012C000306985420BD30020206035612846BDE897
:1012D000F68178603F61391D3068FFF70EFC316898
:1012E0000868E8B1C868D0F80080C768381DFFF703
:1012F0001DFC796A38468847F8690128EFD1B8693A
:1013000040448045E5D30020009000234246002160
:101310003846FFF74CFF0028E1D100F07EF8FEE7E9
:101320007068306071600120CEE738B500248A42D1
:1013300041600061604D06D38169D21A8A4206D2AB
:10134000011D686807E09A4203D2994201D3012443
:1013500003E0011D2868FFF7D0FB204632BD0000E6
:1013600010B586B004E0134689182046FFF7DDFF6C
:1013700051488068002202A900F096FB00284AD05C
:101380000298002803D505990498039A904702987B
:101390000028EDD4049C606910B1201DFFF7C6FB46
:1013A00001A8FFF785FF024602980928E0D8DFE888
:1013B00000F006060605232A06060523D8E703994A
:1013C000A0690B4641182046FFF7AFFF0028CFD099
:1013D000616A20468847E0690128C9D1002100914F
:1013E000039AA069821800232046FFF7E0FE002838
:1013F000BED100F012F8FEE70399A1610029B2D135
:1014000000F00BF8FEE794F82C000028B0D120463D
:10141000FFF7EBFAACE706B010BD502080F311885F
:10142000BFF34F8FBFF36F8F704710B582B0FFF7D8
:10143000F1FB214CA068E8B904F11400FFF741FB6F
:1014400004F12800FFF73DFB04F11400206004F1D3
:101450003C0304F12800606004F18C02002000903D
:1014600010210A2000F0D0F9A06018B10FF2580145
:1014700000F03DFCBDE81340FFF7E5BB10B50400EC
:1014800002D1FFF7CAFFFEE7FFF7C4FB246AFFF7AC
:10149000DAFB204610BD1FB503921C4622466FF0B2
:1014A00001030190009302910023034CA068694658
:1014B00000F0A9FA04B010BDD030002004ED00E027
:1014C000546D722053766300546D72510000000019
:1014D000EFF30980BFF36F8F1D4B1A6820E9F00FFF
:1014E000106008B54FF0500080F31188BFF34F8FA4
:1014F000BFF36F8FFFF710F84FF0000080F31188F3
:10150000BDE8084019680868B0E8F00F80F3098862
:10151000BFF36F8F70470E4B19680868B0E8F00F83
:1015200080F30988BFF36F8F4FF0000080F31188BC
:101530004EF00D0E704707480068006880F3088879
:1015400062B661B6BFF34F8FBFF36F8F00DF00004D
:10155000DC35002008ED00E010B5044682B05020D4
:1015600014B900F0ABF8FEE720210091009A202A80
:1015700002D000F0A3F8FEE700202060201DFFF756
:10158000A0FA01212177204616BD10B52020FFF7D3
:10159000A3F9040006D000212160201DFFF791FA75
:1015A00000202077204610BD2DE9F84F064615464D
:1015B00098464FF0000B502726B987F3118800F0AA
:1015C0007FF8FEE7894619F07F4F04D087F3118832
:1015D00000F076F8FEE7B9F1000F04D187F3118827
:1015E00000F06EF8FEE70A9CFFF7E2F800B944B994
:1015F000FEF7CDFE00F045F86FEA090A30B964B98C
:101600001AE087F3118800F05BF8FEE700249DB133
:1016100030680AEA000030600EE00DB14FF0807BC8
:10162000B8F1000F18BF4BF0806B22464BEA09015E
:10163000301DFEF7A7FF0027FEF7AFFECCB118B9AB
:1016400000F01AF800F03CF8FFF7FCF80746B80184
:101650000DD4FFF7DFFA00F014F8002818BF002DB2
:1016600003D030680AEA00003060FFF7ECFA27F098
:101670007F473846BDE8F28F44494FF080500860FC
:10168000704737684246494638466EE070B50446B2
:101690000D46502014B900F011F8FEE715F07F4F09
:1016A00002D000F00BF8FEE7FFF7B4FA266826EA4E
:1016B00005052560FFF7C7FA304670BD80F3118835
:1016C000BFF34F8FBFF36F8F70470A460146002369
:1016D0000FF29500FFF7DFBEEFF31181502282F386
:1016E0001188BFF34F8FBFF36F8F006881F31188AC
:1016F0007047F8B504460E460025502014B9FFF790
:10170000DDFFFEE716F07F4F02D0FFF7D7FFFEE7C1
:10171000FEF73DFE206822690643266004F10C00B6
:101720002168824217D01768566827F07F435FEA26
:10173000471C01EA03000AD598420AD1F80148BFC4
:101740001D4341F000711046FEF77AFF01E00028CA
:10175000F4D13246E2E721EA05052560FEF71DFED9
:101760002068F2BDC5E7000090E7034600200B406B
:101770000AB91BB101E08B4200D10120704713462A
:101780000A4601460248FFF786BE000004ED00E06D
:101790006517000838B504000D4602D100F091F835
:1017A000FEE7FFF737FAE26B206C216842438818A6
:1017B00060600020A0632068E26BA060521E206C75
:1017C000216842438818E0604FF0FF3104F1440083
:1017D0000170417065B9206990B100F002FA78B1EA
:1017E000DFF82C154FF08050086000F0F5F907E0A5
:1017F00004F11000FFF765F904F12400FFF761F927
:10180000FFF721FA012032BD70B51C4682B050238B
:1018100020B983F3118800F0DFF9FEE724B983F3E0
:10182000118800F0D9F9FEE72AB129B983F31188AC
:1018300000F0D2F9FEE761B90093009E502E0DD161
:10184000069B012584F84650009400F02BF82046B2
:1018500076BD83F3118800F0BFF9FEE783F31188AA
:1018600000F0BAF9FEE7F8B506000D46174602D1BA
:1018700000F027F8FEE7002D0EBF502005FB06F014
:101880005030FFF729F804000AD0002084F8460001
:1018900000943B4604F150022946304600F002F81D
:1018A0002046F2BD38B5049D1C4601B92A462A607F
:1018B000E863296428460121FFF76CFF85F84C4056
:1018C00031BD502080F31188BFF34F8FBFF36F8F6E
:1018D00070472DE9F44783B006468A461F46002428
:1018E000502526B985F3118800F076F9FEE7BAF1A4
:1018F000000F01D1306C70B9022F02D1F06B0128BA
:101900000ED1FEF755FFF0B90398E0B185F31188C9
:1019100000F062F9FEE785F3118800F05DF9FEE75B
:1019200085F3118800F058F9FEE7039906F11000DD
:10193000FEF71AFE00F038F9FEF72FFD18B9C8F8C7
:10194000009000F049F9FFF765F9B06BF16BDFF833
:10195000C08388424FF080593AD3022F38D0039881
:10196000002832D014B900F021F90124FFF76BF9F7
:10197000FEF70DFDFFF74EF900F01BF904BF002242
:10198000027000F01DF904BF00224270FFF75BF9FE
:1019900000F035F858BBFFF73DF9B06BF16B8842AA
:1019A00014BF00250125FFF74EF9002DBDD100F031
:1019B000FBF8FEF7F2FCC6E718B1C8F8009000F09B
:1019C0000BF9FFF740F9012016E0FFF73CF912E0B0
:1019D0003A465146304600F008F9716A0029EBD0CA
:1019E00006F12400FEF707FE0028E6D1E9E700F043
:1019F000DBF8FEF7D2FC002004B0BDE8F08703A9B5
:101A00006846FEF75BBE2DE9F84304468846154656
:101A10001E46502714B900F0DDF8FEE7B8F1000FBC
:101A200001D1206C10BB022E02D1E06B012820D125
:101A3000FFF730F9EFF3118900F02CF801D3022EF3
:101A40001FD194F9457032464146204600F0CDF84A
:101A500017F1010F10D1606A88B100F017F8002863
:101A600018BF002D0BD00120286008E000F0B2F86C
:101A7000FEE700F0AFF8FEE77F1C84F84570012018
:101A800000E0002089F31188BDE8F28304F124000E
:101A9000FEF7B1BD87F31188BFF34F8FBFF36F8F90
:101AA000A06BE16B884270472DE9F74306460F466D
:101AB0000024502526B985F3118800F08DF8FEE743
:101AC0000FB9306C48B9FEF773FE78B9029868B167
:101AD00085F3118800F080F8FEE785F3118800F0A7
:101AE0007BF8FEE700F060F8FEF757FCFFF792F88E
:101AF000B56BDFF81C824FF0805925B90298B8B950
:101B0000FFF7A1F84DE03946304600F0A2F86D1E0F
:101B1000B563306940B106F11000FEF76CFD18B1F5
:101B2000C8F8009000F058F8FFF78DF8012039E070
:101B300014B900F03BF80124FFF785F8FEF727FC05
:101B4000FFF768F806F14400415711F1010F04BF97
:101B50000022027000F034F804BF00224270FFF748
:101B600072F802A9FFF74CFF0028304610D100F0B0
:101B7000B3F80028B6D000F028F800F015F8FEF70A
:101B80000CFC0028B2D1C8F8009000F025F8ADE7B1
:101B900000F072F8FEF701FC304600F09DF80028D6
:101BA000A4D00020BDE8FE83304665E06846FEF71D
:101BB0007EBD06F1440090F9001011F1010F70474D
:101BC00090F9011011F1010F7047029906F12400FC
:101BD000FEF7CABC87F31188BFF34F8FBFF36F8F37
:101BE000704704F11000FEF706BDF8B5064615462D
:101BF000B46B326C002742B9316831BB7068FEF7B4
:101C0000E6FD0021074671601FE065B9B06800F08D
:101C1000A7F8B068316C08447168B060884214D38A
:101C20003068B06011E0F06800F09AF8306CF1684C
:101C300040420144F1603268914202D27168084426
:101C4000F060022D01D104B1641E641CB4633846F7
:101C5000F2BD10B5026C0B466AB1C168446811440C
:101C6000C160A14224BF0168C160C168BDE81040E5
:101C7000184600F075B810BD70B50446FEF7CAFFEF
:101C800004F1440595F9016076B2012E11DB606A1A
:101C900078B1FFF7FBFE08B1FEF73FFD761EF3E7D4
:101CA000206990B1FFF79DFF08B1FEF736FD761E63
:101CB00008E04FF0FF306870FEF7C5FFFEF7AAFF9F
:101CC00095F9006076B2012EEADA4FF0FF30287005
:101CD000BDE87040FEF7B7BF10B50446FEF79AFFA7
:101CE000A06B441EA441FEF7AEFFE00F10BD10B57F
:101CF0000023084C54F833201AB15B1C082BF9D38D
:101D000010BD44F8331004EBC301486010BD00005F
:101D100004ED00E098360020F8B504460D4616465E
:101D2000FEF778FF04F1380797F90C0010F1010F66
:101D300004BF0021397397F90D0010F1010F04BFA2
:101D400000217973FEF77FFF386828B932462946AB
:101D500004F12400FEF736FC2046BDE8F2408BE794
:101D600062B38B0708D0521E11F8013B00F8013B0B
:101D700000F024808B07F6D1830740F0208000BF5D
:101D8000103A07D330B4B1E83810103AA0E8381050
:101D9000F9D230BC530724BFB1E80810A0E80810FE
:101DA00044BF51F8043B40F8043BD20724BF31F84C
:101DB000022B20F8022B44BF0B7803707047121FD0
:101DC00017D35B0009D151F8043B20F8023B1B0CF0
:101DD000121F20F8023BF6D20BE051F8043B00F84A
:101DE000013B1B0A20F8023B1B0C121F00F8013BB1
:101DF000F3D238BF121D521E24BF11F8013B00F868
:101E0000013BF8D8704770472DE9F843040016D01D
:101E10002078DFF8C474C10713D5786800F00C008F
:101E2000042807D0786800F00C00082840D17868B2
:101E3000C1033DD53968880303D56068002800F0E8
:101E4000F5802178DFF89C54880719D5786810F060
:101E50000C0F07D0786800F00C00082862D1786871
:101E6000C1035FD43968880703D52069012840F091
:101E7000DD803968606921F0F80141EAC00139600C
:101E80002178080772D5A069DFF85C14002867D0B4
:101E900001220A6000F042FA0646786A810700F1E2
:101EA000C78000F03BFA801B0228F6D9032039E1F5
:101EB0006068B0F5803F0FD038B9396821F48031BF
:101EC0003960386820F4802009E0B0F5A02F396827
:101ED00007D141F480213960386840F4803038609F
:101EE00006E021F4803139603A6822F480223A60B9
:101EF000606858B100F012FA064639688803A0D429
:101F000000F00CFA801B6528F7D3CFE700F006FA43
:101F100006463868810394D500F000FA801B6528D6
:101F2000F7D3C3E7206970B10121296000F0F6F909
:101F300006463868810700F1B68000F0EFF9801B93
:101F40000228F6D9B2E7286000F0E8F906463868BA
:101F5000810795D500F0E2F9801B0228F7D9A5E7A3
:101F6000086000F0DBF90646786A81076FD500F05B
:101F7000D5F9801B0228F7D998E708B9386A09E033
:101F80000528386A06D140F004003862386A40F00B
:101F9000010005E0400840003862386A20F0040083
:101FA000386241F28939E06860B100F0B7F906465D
:101FB000386A810700F1848000F0B0F9801B484541
:101FC000F6D373E700F0AAF90646386A810777D599
:101FD00000F0A4F9801B4845F7D367E700F09EF9AD
:101FE000801B022840F27F8060E700F097F9801B99
:101FF000022840F2928059E700F096F806463868C9
:10200000810140F18E8000F089F9801B0228F6D909
:102010004CE701280AD07868226A00F480319142A6
:1020200002BF00F47010616A88427AD0012079E022
:10203000DFF8A8020168C9084FF47A72B1FBF2F226
:10204000009200BF0098411E00280091F9D120782D
:1020500041073CD5F869C1004FF000080AD4F8697F
:1020600040F08050F8614FF00108F86900F08050AE
:1020700000900098DFF87492D9F80010C8051AD4BF
:10208000D9F8000040F48070C9F8000000F046F96B
:102090000646D9F80010C8050DD400F03FF9801BA2
:1020A0006528F6D302E73868616920F0F80040EA55
:1020B000C1003860E4E6E06801287FF45EAF65E7C0
:1020C000B8F1000F03D0F86920F08050F861E069A2
:1020D00038B3796801F00C0108299AD002288BD115
:1020E00000F022F80646386881013FF577AF206A94
:1020F000B0F5803F05D17968A06821F40031014333
:1021000079607968206A21F474110143606A01439F
:102110007960012000F009F80646386881017FF5F2
:1021200064AF0020BDE8F2830020286600F0F6B816
:102130002DE9F0410400884673D06D4F386800F0F7
:102140000700404502D200F06EF86AD12068624D67
:10215000810712D5400703D5686840F4E0606860E5
:102160002178080703D5686840F4605068606968A2
:10217000A06821F0F001014369602078C10748D5CB
:102180006068012802D129688A0303E0022803D18C
:1021900029688A0103D444E02A68910741D5696817
:1021A000890840EA8100686000F0B8F8064668686F
:1021B000616800F00C00B0EB810F2AD000F0AEF89F
:1021C000801B41F289329042F1D303201FE0207836
:1021D000410705D56968E06821F4E0610143696061
:1021E0002078010706D56868216920F4605040EA2C
:1021F000C100686000F025F86A683E49C2F3031226
:10220000895C364AC840106000F017F80020BDE82D
:10221000F081386800F007008045D8D200F003F85C
:10222000D5D00120F3E73968C90848EAC10139600F
:10223000386800F00700404570472F48006800F0FC
:1022400073B82E4926480A6802F00C03082B00D008
:10225000704710B50FF2B004C2F38343D203E35CBE
:1022600009D509680FF2B002C1F340415843515CEF
:10227000B0FBF1F010BD18462149484310BD174886
:102280001E4A006813681F49C3F3022206E0134880
:102290001A4A006813681B49C3F3C222895CC8400C
:1022A000704710B50F220260144A136803F003034D
:1022B0004360146804F0F0048460136803F4E0637E
:1022C000C3601268D20802F4E06202610848026842
:1022D00002F007020A6010BD00100240C400002096
:1022E00000127A0000004242800442420070004026
:1022F0000020024084480008C00000200410024072
:1023000000093D00BC48000802030405060708094F
:102310000A0B0C0D0E0F10100102704701484068A7
:10232000704700BFB800002010B5014688B00022F9
:102330001C2000F04FF81C2000F069F81548164CDE
:10234000016841F00101016001A9006800F001008D
:102350000090009802A8FFF7A4FFFFF790FF4FF04E
:1023600080412160400040F2E731E16000220B49EA
:102370002261B0FBF1F0401E6060A260204600F0D8
:102380005BF818B9204600F064F800E0012008B0BE
:1023900010BD00001C1002405036002040420F00CB
:1023A0000901020002D41F48815470471E4802F000
:1023B0000F02104400F8041C70471C4A13684FF6C3
:1023C000FF0100020B4000F4E06018431849084385
:1023D0001060704738B5154B1C68C4F30223C3F175
:1023E0000704052C28BF04241D1D072D34BF00231E
:1023F000DB1E012505FA04F4641E2140994005FA0C
:1024000003F35B1E1A401143BDE83440C8E70028BF
:1024100007D4012200F01F01064B8A40400943F80F
:102420002020704700E400E018ED00E00CED00E033
:102430000000FA0500E100E038B5040001D10120F8
:1024400032BD00F04BF818B900F044F800F02CF958
:102450002DE090F83D10012901D0012070470222A3
:1024600080F83D200168CA6842F00102CA60006835
:10247000DFF87010884218BFB0F1804F07D0DFF846
:10248000681088421CBFDFF86410884209D1816857
:1024900001F00701062908D0016841F0010101603F
:1024A00003E0026842F0010202600020704702204F
:1024B0006870211D206800F0BFF80120A872A87084
:1024C000E87028716871A871E87128726872687084
:1024D000002032BD002129702046704704F13C05E0
:1024E00068787047002C014000040040000800405C
:1024F00010B50446206801698A0715D5C1688A07A6
:1025000012D56FF00202026101212177806910F07B
:10251000030F204602D000F0C8F803E000F0C6F830
:1025200000F087F800202077206801694A0715D558
:10253000C1684A0712D56FF00402026102212177B7
:10254000806910F4407F204602D000F0AEF803E02E
:1025500000F0ACF800F06DF80020207720680169E9
:102560000A0715D5C1680A0712D56FF00802026183
:1025700004212177C06910F0030F204602D000F03B
:1025800094F803E000F092F800F053F80020207770
:1025900020680169CA0615D5C168CA0612D56FF050
:1025A0001002026108212177C06910F4407F2046A3
:1025B00002D000F07AF803E000F078F800F039F883
:1025C0000020207720680169CA0708D5C168CA07BA
:1025D00005D56FF001020261204600F0FEF9206887
:1025E00001690A0608D5C1680A0605D56FF08002A0
:1025F0000261204600F04CFA206801694A0608D5BD
:10260000C1684A0605D56FF040020261204600F01D
:1026100040FA206801698A060AD5C1688A0607D58A
:102620006FF0200202612046BDE8104000F032BA8F
:1026300010BD204600F02FBA70B5174E0368174C36
:10264000174DB04218BFB0F1804F03D0A84218BF59
:10265000A04209D14A6823F070031343B0421CBF63
:10266000B0F1804FA84201D0A04203D1CA6823F440
:10267000407313434A6923F0800313430360B0425D
:102680008A68C2620A68826202D10969054A1160D9
:102690000122426170BD0000002C01400008004092
:1026A00000040040302C014070477047704770476D
:1026B00070B586B000F0F0F900F00AF96846102114
:1026C00000F0FCF9B948BA4C0168BA4D41F010016C
:1026D00001604FF4E136026802F01002049204999E
:1026E000016841F020010160026802F020020492BA
:1026F0000499016841F004010160026802F00402DB
:10270000049200220499016841F00801016002214D
:10271000006800F0080004900498204600F091FA48
:1027200001224FF44041284600F08BFA012000219D
:1027300000900191029100F0BFF8022000F0C0F873
:1027400000F0BAF84FF4404000F0BAF8284600F024
:10275000B4F8994C994804F1840528600020A860D9
:10276000E86028616E600C2068610020A861E86163
:10277000284600F08DFA08B100F036F990486867F5
:10278000AE670020E86704F58275286068600C2059
:10279000A8600020E860286104F1F80000F078FAF1
:1027A00008B100F021F98748A866EE660020286786
:1027B0006867A8670C20E86704F5C27500202860E8
:1027C000686004F5B67000F063FA08B100F00CF927
:1027D000684600210022002380E80E004FF46020AC
:1027E000E0610120784E266020610026217321756A
:1027F0006160A660204600F039FB08B100F0F4F8F3
:10280000042001210090019102966946204600F0C3
:10281000A7FB08B100F0E8F86C482063A663E66304
:102820006664A664E6642665694860634FF4804088
:10283000206404F1300000F043FC08B100F0D4F84B
:10284000FEF76AFA0FF228230FF28D100022012101
:10285000FEF704FBE86602210FF2FC121020FEF7DF
:10286000D7FBA86600210FF284120FF2E900FEF7F1
:1028700082FAE86500210FF298120FF2F500FEF7D8
:102880007AFA286600210FF2AC120FF20110FEF75F
:1028900072FA68664FF4E1330020009001220121B2
:1028A00000F0BAFC00F0E4FC0FF2D410FEF70CFBD1
:1028B0002867FEF744FAFEE72046694600F002B9B1
:1028C00001210090019100200221029003917047A4
:1028D00000B593B009A8282100F0F0F804A814214D
:1028E00000F0ECF86846102100F0E8F801200990AB
:1028F00000214FF480300A9011900B914FF4E010BA
:102900000122022112900D92109109A8FFF77CFA82
:1029100008B100F069F80F20022104900591002011
:102920004FF48061069007910890022104A8FFF7F8
:10293000FFFB08B100F058F8022000904FF400416E
:102940000291684600F000FD08B100F04DF813B0A8
:1029500000BD000038B500241E4D4FF480411548DD
:1029600000F073F96C806420FEF75DFA641CF4E7F4
:1029700010B5184CFFF7D2FCE080000C208100F06D
:1029800084FC0A20FEF74FFAF4E7000038B5002473
:10299000104D4FF40041074800F057F92C804FF4D8
:1029A000FA70FEF740FA641CF3E7000018100240CA
:1029B00000080140000C0140D82E002000380140E2
:1029C0000044004000480040002401400054004002
:1029D000A0860100EC34002070470068B0F1804F01
:1029E00008BF00F025BD704772B6FEE7F846000844
:1029F00000000000000000000000000000000000D7
:102A000000020000180000000000000000000000AC
:102A10000447000800000000000000000000000063
:102A2000000000000004000008000000000000009A
:102A30000000000010470008000000000000000037
:102A4000000000000000000000040000080000007A
:102A500000000000000000001C470008000000000B
:102A60000000000000000000000000000000000066
:102A700028470008000000000000000000000000DF
:102A800034470008000000000000000000000000C3
:102A9000704770477047704780B50748016841F03C
:102AA000100101600320FFF788FC0F20FFF73CFCBA
:102AB00000F0C6FC002002BD002002400022FDF70D
:102AC000E7BF70472DE9F84702464FF0000E00249B
:102AD000624BDFF88C81DFF88C914FF00F0A0CE02D
:102AE000DF683840D86006E09D604D68AD02F7D5DC
:102AF000D8680743DF600EF1010E0F6837FA0EF059
:102B000000F09D80012000FA0EF63740B742F2D166
:102B1000486838B301281AD002281DD003282CD0C9
:102B2000112816D012281AD04F4DA8421CBF4F4D65
:102B3000A84217D04E4DA8421CBF4E4DA84211D0FE
:102B40004D4DA8421CBF4D4DA8420BD016E0CC689D
:102B500014E0CC68241D11E0CC6808340EE0CC6889
:102B60000C340BE0886808B9042407E0012819BF79
:102B7000082456610824166100E00024B7F5807F20
:102B800003D210464FEA8E0C04E0AEF10805101D8A
:102B90004FEA850C05680AFA0CF6B54304FA0CF600
:102BA000354305604868C000A5D5D9F8000040F05D
:102BB0000100C9F800004FEA9E05D9F8000000F0B6
:102BC00001000090009858F825C04FEA8E0000F0F0
:102BD0000C000AFA00F62CEA060C294EB24208BF95
:102BE00000260ED0274EB24208BF012609D0264E3D
:102BF000B24208BF022604D0244EB2420CBF0326C4
:102C0000042606FA00F040EA0C0048F82500F843D4
:102C10004D68ED031D684CBF3D4305401D604D6888
:102C2000AD035D684CBF3D4305405D604D689E68E7
:102C3000ED024CBF47EA060500EA060554E7BDE889
:102C4000F18702B9090401617047C26801EA020311
:102C5000914341EA034101617047000000040140D3
:102C6000080001401810024000001110000012106E
:102C7000000021100000221000003110000032106E
:102C800000080140000C0140001001400014014008
:102C900038B5040001D1012032BD04F13C0568784B
:102CA00018B900F010F800F013F800F018F800F070
:102CB00027F8FFE7416100F01CF868602020687089
:102CC000A870002032BD00212970204600F06AB8AB
:102CD000286B08B9324929632046296B084724200C
:102CE00068702068C16821F40051C160204600F07E
:102CF0007FB82068C16841F40051C160002070476E
:102D00002068016921F4904101612068416921F046
:102D10002A01704730B51346002200F13C04180028
:102D200005D1606840F020006060012030BD20784F
:102D3000012801D1022030BD0125257060782028AE
:102D40001AD10C2923D8DFE801F007090B0D0F1168
:102D500013152222221E2000A3601DE0E3601BE069
:102D6000236119E0636117E0A36115E0E36113E0FB
:102D7000236211E063620FE0607840B90B2902D052
:102D80000C2902D003E0236306E0636304E060687B
:102D900040F020006060012200202070104630BD0D
:102DA0001F35000809494164094981640949C16422
:102DB0000949016509494165094981650949C165B3
:102DC000094901660949816670470000071E00082D
:102DD000530B0008AF2600081B230008C32A000875
:102DE000B7390008EF44000843480008534800087A
:102DF00010B5044621680A69E06822F44052024393
:102E00000A611848CA680240A06802432069024368
:102E100060690243CA604A69A06922F440720243B1
:102E200011484A61814202D1FFF731FA01E0FFF710
:102E300026FA1921484361688900B0FBF1F164204A
:102E4000B1FBF0F200FB121109013231B1FBF0F0DD
:102E500000F0F00101EB021100F00F0040182168B2
:102E6000886010BDF3E9FFFF00380140F8B5044663
:102E700000270026002C71D004F12405686820B9D1
:102E8000AE602870204600F0FBFA204600F0F2F811
:102E90006968CA065ED401005CD1696821F4885172
:102EA00041F0020169606368E269217B1343A26813
:102EB000B2F5807F14BF012A4FF48077227D012A6A
:102EC00043EA41030FD131B9A169491E490341F4D5
:102ED00000610F4307E0696841F020016960A9685B
:102EE00041F00101A96021684A6822F46942174350
:102EF0004F602268DFF8641197680F401F439760A6
:102F0000A168B1F5807F18BF012902D12669761E1C
:102F100036052168CA6A22F470021643CE6224681C
:102F2000DFF83C11A2680A409A4208D10021A9604A
:102F3000696821F0020141F001016960F2BD686831
:102F400020F0020040F010006860A86840F0010026
:102F5000A86003E0686840F0100068600120F2BDDE
:102F6000F8B50A46002100F1240300911C78012CD9
:102F700001D10220F2BD01251D701F27546815687C
:102F80000668072C08D2641E04EB8404D6F834C00B
:102F900000F05EF8756312E00D2C08D2E41F04EB1C
:102FA0008404D6F830C000F053F8356307E00D3CD8
:102FB00004EB8404D6F82CC000F04AF8F562072729
:102FC0001668946805680A2E08D30A3E06EB460682
:102FD000D5F80CC000F036F8EC6006E006EB4606CB
:102FE000D5F810C000F02EF82C611468102C18BF12
:102FF000112C23D100681C4CA0421AD11B48046834
:1030000025021BD4056845F40005056010681028EA
:1030100014D1144C16482568B5FBF0F00A22504331
:103020000090009800281EBF009A521E0092F8D10E
:1030300004E00121586840F020005860002018701A
:103040000846F2BDB7402CEA0707B4403C4370473E
:10305000A7402CEA0707A5403D437047FDF7E1FF75
:10306000FE0E1FFFC4000020002401400824014080
:1030700040420F0038B5044620688168CA071DD554
:103080008168490849008160FFF748F905462068D2
:103090008168C80712D5FFF741F9401B0328F6D312
:1030A00020688168C807F2D5A06A40F01000A062CD
:1030B000E06A40F00100E062012032BD002032BD34
:1030C000F8B5040020D004F13C05687820B900214F
:1030D0002970204600F0F7F900F08AF820680268AD
:1030E00042F4004202602068016821F4004101605E
:1030F000FFF7C5F801466068DFF80421904205D269
:10310000DFF80001814205D20120F2BDDFF8F800AE
:103110008142F9D3DFF8F400B1FBF0F32068466890
:10312000B60943EA861646602668376A60689042A8
:1031300006D34FF4967043434FF47A70B3FBF0F329
:103140005B1CBF0943EA87133362491E2368DE69AB
:103150006768974206D27F0000F044F8042913D232
:10316000042111E0A06820B907EB470700F03AF806
:1031700005E01920474300F035F841F48041080587
:103180000CBF012141F40041DFF8840006400E43EA
:10319000DE6121680A68E06922F0C0020243206A09
:1031A00002430A602168DFF86C008A6802402069E7
:1031B0000243E06802438A602168CA68A3696069C3
:1031C000120A034343EA0222CA602068016841F000
:1031D00001010160002068602020687000202063E9
:1031E000A870F2BDB1FBF7F1491CC1F30B017047A8
:1031F0002420687020680168490849000160704710
:10320000A186010080841E0000093D0040420F009D
:103210000030FFFF007CFFFF38B514461A460B0054
:1032200023D0F82921DA3F4D2970F0B93E48049B9C
:10323000E86021463D4828613D48A8603D486861F6
:103240000020A8613C48E8613C4828623C4868622C
:10325000287800F00BFA040008D100F023FB0028C6
:103260000EBF03240120687000E00224204632BD16
:1032700038B52C4D68780024012803D1E9688847C7
:103280006C7000E00624204632BD70B5254C607895
:1032900082B008B1062076BD684600F014FB012814
:1032A0003ED19DF80000022802D0042811D037E05A
:1032B0006369221D04F12801A01C984780BBA078F7
:1032C0002178884218BF00282AD1042000F0F3FAA0
:1032D00026E0A26A1B4E1378E3700120002516F841
:1032E000351059B1994203D06D1C102DF7DB05E064
:1032F0001046321D211D52F835209047A17879B132
:10330000010008D0E178A26A41F080011170A16A41
:1033100048700220A080A288A16A2078A3689847FC
:10332000002076BD00000020B1360008CB36000832
:1033300039370008E536000895370008EF370008F0
:10334000593800082C0000202DE9F041074682B0D2
:103350003878344EC10750D5B0690024C10009D473
:10336000B06940F08050B0610124B06900F0805035
:10337000009000982C4D2968C80519D4286840F49D
:1033800080702860FEF7CAFF80462968C8050FD400
:10339000FEF7C4FFA0EB08006528F6D303203FE04A
:1033A000FEF7BCFF401B41F28931884217D3F5E795
:1033B000F06910F440701EBF796801F440718842D2
:1033C00010D01A49F06901220A6020F440700022EE
:1033D0000A60F061C00705D5FEF7A0FF0546F06959
:1033E0008107DDD5F169786821F440710143F1610D
:1033F0001CB1B06920F08050B0613978880705D5DC
:103400003268B86822F44042024332603878C1061C
:1034100005D53168F86821F480010143316000204E
:10342000BDE8F681041002400070004040044242B2
:1034300002494A68087882184A607047B80000203C
:1034400080B58148016841F001010160026802F025
:103450000102009200220099416841F080514160D0
:103460000F21406800F08050009000986FF001003C
:10347000FEF7B0FF7548016821F0E061016001BD11
:1034800010B586B000F046F82168714A914218D113
:103490006D48026842F4007202600322016801F480
:1034A00000710091009900F0BCF83021006800F034
:1034B00004000090009867480191029201A9FFF76B
:1034C00001FB06B010BD10B586B000F023F82168EE
:1034D000614A91421CD15C4C206840F00800206099
:1034E0001222216801F008010091C0210098019189
:1034F00003200490029201A95848FFF7E3FA60689C
:1035000040F400106060606800F4001000900098C3
:1035100006B010BD044601A81021FFF7CFBA30B5A0
:1035200085B0044668461021FFF7C8FA21684C4A66
:10353000484D454891424FF480641DD1016841F4E3
:1035400080410160026802F480420492022200F08D
:1035500067F84FF4007100F069F8002001900290C4
:10356000009469462846FFF7ADFA00220521252080
:10357000FEF730FF25204FE03A4A91421DD14168C5
:1035800041F4003141600222416801F400310491AC
:1035900000F046F8042100F049F8082000210090CE
:1035A0000191029128466946FFF78CFA0022052115
:1035B0002620FEF70FFF26202EE02B4A91422DD128
:1035C000416841F480214160416801F48021049107
:1035D0000499016841F0080101600321006800F0CE
:1035E0000800049004980094022001900391694619
:1035F0001A4C2046FFF766FA4FF400600021009055
:103600000191029120466946FFF75CFA00220521EC
:103610002720FEF7DFFE2720FEF7F9FE05B030BDBC
:103620000499016841F0040101607047006800F0EE
:1036300004000490049800910320039001926946CD
:103640002846FFF73FBA000018100240040001406E
:10365000002401400008014000540040000C0140DB
:10366000003801400044004000480040F8B50C46D6
:1036700015461E4600F04AF93346082229462046E0
:1036800000F09AF9002701280DD144F60130854257
:103690002FBF232080486D00B0FBF5F080B200F012
:1036A0006BFA012800D0032700F032F93846F2BD4A
:1036B00080B500F02BF979490020487000210120E5
:1036C00000F0C8F900F06FFA08E080B500F01EF9CC
:1036D0000021002000F0BEF900F080FABDE80140B2
:1036E00000F016B92DE9F84304468846914600F0EB
:1036F0000DF96A4DA888002740F20111884202DBCB
:1037000000F0A2F8FEE7A88804280FDB644EA98821
:10371000304600F08BFA48B930782070A888C11E76
:10372000A9F80010711CC8F8001000E0052700F08F
:10373000EFF83846BDE8F2832DE9F04107468846A8
:10374000164600F0E3F800F07AF81CD1A8F1010069
:10375000A860012169800770698876186E80698881
:1037600000F064FA69884A1C6A804D4A5054000A85
:1037700069884B1C6B805054012101202870002067
:1037800000F068F900E0052400F0C2F82046BDE82A
:10379000F081000010B5414C82B0207810B100F0EB
:1037A00053F8FEE7684600F08CF961783C4803293D
:1037B00014D8DFE801F0110208110021A18000F007
:1037C0000FF8022007E0A188B1F5807F02DA00F04F
:1037D00007F801E00320607000F0E5F9002016BD55
:1037E000A1884A1CA2809DF800204254704738B539
:1037F00000F025F802D000F027F8FEE7297811B193
:10380000012903D019E000F025F916E0688850B1CD
:10381000A968087800F04CF9A868411CA96068887C
:10382000411E698009E0082000F045F804460021A7
:10383000012000F00FF900202870204632BD174DFE
:103840006878002401287047502181F31188BFF364
:103850004F8FBFF36F8F704738B5104D68780024D5
:1038600020B1022803D0032804D009E0012000F091
:1038700022F8044600F0B2F901216970204632BDF9
:10388000687800281FBF6978022968780328F1D07A
:10389000FFF7DAFFFEE70000A07F170044370020A3
:1038A0001C33002080B50FF25400FDF70DFB1249C8
:1038B0000860012002BD80B501460F480068FDF791
:1038C0001DFB012002BD38B50B4D044628684FF0A2
:1038D000FF3300220F21FDF75AFB012806D00228F2
:1038E00006D0042814BF0828207003E0012100E05E
:1038F00002212170012032BD6C370020A44800084D
:10390000000000000000000000000000FDF782B988
:10391000FDF799B970B50346502080F31188BFF3C5
:103920004F8FBFF36F8F40F2091417E008781D68BE
:103930009E88A8559888401C98809888A042A4BF6B
:10394000002098809888DD88A84207D1D888401C3C
:10395000D880D888A042A4BF0020D8801046421E3C
:103960000028E3D180F3118870BDF0B503461046FE
:10397000002510E0DC881E68345DDE88761CDE8061
:1039800040F20917DE88BE42A8BFDD8001F8014B76
:10399000401E85F3118860B1502484F31188BFF371
:1039A0004F8FBFF36F8FDC889E88B442E2D185F3DE
:1039B0001188101AF0BD704710B55B4CA268012841
:1039C00008BF5A4A06D0022808BF594A02D0032825
:1039D00008BF584AA260104600224160C2604FF4FE
:1039E00080511BB1022B08D003D30AE08260026130
:1039F00007E081604FF4C06102E081604FF48061B4
:103A00000161FFF745F908B1FEF7EEFFA068016814
:103A1000CA6822F02002CA60CA6822F04002CA6066
:103A200003210FF2CD02FFF775F904F114002060B5
:103A30000020E080A0800FF23010FDF745FA2061F1
:103A400000210FF200120FF28D00FDF794F9E060F3
:103A5000012010BD38B5344D0200A8680C4601683D
:103A600035486FF020030B606FF040030B6008D007
:103A7000CB6843F02003CB6000220221FFF7E1F87E
:103A800009E001220221FFF7DCF8A8680068C1689C
:103A900021F02001C1602CB101212869BDE834402A
:103AA000FDF72CBA2869BDE834400121FDF74CBA76
:103AB0001D4989680968486008684206FCD50120EC
:103AC000704780B5014601221748FFF74EFF0120DD
:103AD00002BD000038B5194C134D28694FF0FF3373
:103AE00002220121FDF753FA21688847F5E700001B
:103AF00038B54FF0FF3400940B4D04E001226946C5
:103B00002846FFF707FFA96809680A682046930658
:103B100044BF486800F0FF0010F1010F0090EDD1A4
:103B200007490A68904731BDFC3100205C2F002016
:103B3000D02F002044300020000801402000002049
:103B40001C00002068480008000000000000000081
:103B50000000000000000000000400001A00000047
:103B60000000000000000000744800080000000091
:103B7000000000000000000010B582B00FF29104B8
:103B80000094322148434FF47A74B0FBF4F10223DD
:103B90000022491C0FF28800FDF7B2FA1E4A10609D
:103BA00000B1012016BD10B5EFF30580002804BF59
:103BB000EFF31080002882B0174C07D0FCF745FCCB
:103BC0000246002000900023062106E0FCF739FCA5
:103BD0000021009100230246012115E010B5EFF30A
:103BE0000580002804BFEFF31080002882B00A4C43
:103BF00005D00020009000230022082104E00021CD
:103C000000910023002203212068FDF7D0FA13BDA4
:103C10000248016808470000703700202400002097
:103C2000536C6176652074696D65720070B50246EB
:103C3000FF23FF200FF224140FF2200505E012F8F5
:103C4000016B4640A85D5840A35D0E46711EB6B29A
:103C5000002EF4D140EA032070BD000000C1814075
:103C600001C0804101C0804100C1814001C080414C
:103C700000C1814000C1814001C0804101C080413C
:103C800000C1814000C1814001C0804100C181402C
:103C900001C0804101C0804100C1814001C080411C
:103CA00000C1814000C1814001C0804100C181400C
:103CB00001C0804101C0804100C1814000C18140FC
:103CC00001C0804101C0804100C1814001C08041EC
:103CD00000C1814000C1814001C0804101C08041DC
:103CE00000C1814000C1814001C0804100C18140CC
:103CF00001C0804101C0804100C1814000C18140BC
:103D000001C0804101C0804100C1814001C08041AB
:103D100000C1814000C1814001C0804100C181409B
:103D200001C0804101C0804100C1814001C080418B
:103D300000C1814000C1814001C0804101C080417B
:103D400000C1814000C1814001C0804100C181406B
:103D500001C0804101C0804100C1814000C0C1015B
:103D6000C30302C2C60607C705C5C404CC0C0DCDEB
:103D70000FCFCE0E0ACACB0BC90908C8D81819D95B
:103D80001BDBDA1A1EDEDF1FDD1D1CDC14D4D5158B
:103D9000D71716D6D21213D311D1D010F03031F17B
:103DA00033F3F23236F6F737F53534F43CFCFD3DAB
:103DB000FF3F3EFEFA3A3BFB39F9F83828E8E9299B
:103DC000EB2B2AEAEE2E2FEF2DEDEC2CE42425E54B
:103DD00027E7E62622E2E323E12120E0A06061A1BB
:103DE00063A3A26266A6A767A56564A46CACAD6D6B
:103DF000AF6F6EAEAA6A6BAB69A9A86878B8B979DB
:103E0000BB7B7ABABE7E7FBF7DBDBC7CB47475B50A
:103E100077B7B67672B2B373B17170B050909151FA
:103E20009353529296565797559594549C5C5D9D2A
:103E30005F9F9E5E5A9A9B5B99595898884849891A
:103E40004B8B8A4A4E8E8F4F8D4D4C8C44848545CA
:103E500087474686824243834181804070B54C1E2D
:103E60000346A4B200201119652911DA774D29887B
:103E7000641A91B269B1A4B205EB4401641C8E8846
:103E8000360A03F8016B521E898803F8011BF0E71C
:103E9000012070BDF0B54D1E1C46ADB20023511976
:103EA000652927DA6A4E31886D1AADB214B1012C3A
:103EB00023D020E091B2F1B1311D341D31F815103D
:103EC000090A00F8011B521E34F8151000F8011BF6
:103ED0006D1CADB2EEE710F8014B06EB4501240274
:103EE0008C806D1C8C8810F8017B3C438C80ADB2BB
:103EF000521E02E001231846F0BD91B20029EAD11A
:103F0000F9E72DE9F04715464C1EEE08DFF844911D
:103F1000B9F80020A4B2761C291941294FF00008F5
:103F200048DAA41A2704A4B2A10804EB5171C90805
:103F3000FF0CA4EBC10413B1012B3ED03CE0824640
:103F40000BE009F10400BFB20822A1B2C01900F0D1
:103F5000A9F87F1C0AF8010B761EB0B20028F0D138
:103F600000F02DF81AF8011CC5F10805A940C9B2E6
:103F7000E9400AF8011C1FE01AF8013B0822A1B22F
:103F8000604600F06BF87F1C761EB6B209F10400A3
:103F9000BFB2022E00EB070CEEDA00F010F850462C
:103FA000A9B249B110F8013BEAB2A1B2604600F0F3
:103FB00055F801E04FF0010845E08246E5E7A90821
:103FC00005EB5171C908A5EBC10570472DE9F04714
:103FD00017464C1EFD08DFF88090A4B282466D1C87
:103FE0003919B9F8000041294FF0000829DA241ADC
:103FF0002604A4B2A00804EB5070C008F60CA4EB91
:10400000C0040BE0B6B209EB06000822A1B2001D05
:1040100000F048F8761C0AF8010B6D1EA8B20028C3
:10402000F0D1B80807EB5070C008A7EBC0071AF82A
:10403000010CC7F10807B840C0B2F8400AF8010CFB
:1040400001E04FF001084046BDE8F0871C34002035
:10405000E83400205C37002050370020F0B5092AF2
:1040600007DB502080F31188BFF34F8FBFF36F8FB2
:10407000FEE7CD084619475D747847EA0427012416
:1040800004FA02F2521EA1EBC504A240A1EBC50145
:1040900027EA020203FA01F1114389B24155090AE4
:1040A0007170F0BD10B50346CC08A1EBC401185DDA
:1040B00023445B7840EA0320C840012101FA02F260
:1040C000511E0840C0B210BD48B1012802D00728D7
:1040D00002D003E00220704706207047042070479A
:1040E00038B509880024052910D14578817841EA3E
:1040F0000521491C0123012289B2C01CFFF7CAFE19
:10410000010004D0FFF7E0FF044600E0032420464E
:1041100032BD70B50C460025218805291EDD427888
:104120008178C37841EA02210279491C52EA0322CC
:10413000437913D0792A11DA5600F6B2B3420DD181
:10414000012389B2801DFFF7A5FE010003D0FFF710
:10415000BBFF054603E00520208000E0032528463C
:1041600070BD70B50D4600262988052927D14278F3
:104170008178047941EA0221C278491C54EA022478
:104180001DD07E2C1BDA2E800322027063002A8849
:10419000521C2A80437000232A88521C2A8089B22C
:1041A0002246801CFFF776FE010003D0FFF78CFF4C
:1041B000064605E0288800EB4400288000E003263E
:1041C000304670BD2DE9F0410E4605463088002787
:1041D000092844DD6978A8782C792A7A40EA0120F8
:1041E00000F10108E878A97944EA0024687941EAF5
:1041F0000021E87942EA0022687A491C74B37E2CD7
:104200002CDA5AB37A2A29DA5300834226D10123C1
:1042100089B205F10A00FFF73DFE010018D1378091
:104220001720287061003088401C3080697000239E
:104230003088401C308022461FFA88F1A81CFFF706
:1042400029FE010004D1308800EB4400308006E0F4
:10425000010004D0FFF738FF074600E00327384687
:10426000BDE8F08180B510B900F01FF8FEE700212D
:1042700001604160017201BD80B510B900F015F810
:10428000FEE7017A022902D300F00FF8FEE74A1C8C
:104290000272EFF3118240F82120502080F3118840
:1042A000BFF34F8FBFF36F8F01BD72B6FEF79CBB9C
:1042B00080B510B9FFF7F9FFFEE7017A491E0172D8
:1042C000C9B2022902D3FFF7F0FFFEE750F8210040
:1042D00080F3118801BD38B5040002D100F056F812
:1042E000FEE700F00FF80021264A0B01D05C28B150
:1042F000491C0429F9D300F049F8FEE700F031F831
:1043000028462BE01E4D2846B6E738B5040002D1FA
:1043100000F03CF8FEE7FFF7F5FF00F029F803D1C5
:1043200000220270284619E000F030F8FEE738B5A8
:10433000040002D100F02AF8FEE700F01DF8002189
:10434000114A0B01D05C28B1491C0829F9D300F0AF
:104350001DF8FEE700F005F805F10C00BDE832405D
:10436000A6E7D0182060012101702068001D79E7C0
:104370002068017801297047014D05F10C007BE7A9
:104380001C37002048010020C800002072B6FEF74C
:104390002BBB38B5040002D1FFF7F8FFFEE7FFF7AB
:1043A000EBFFFFF7E5FF02D100220270D4E7FFF731
:1043B000EDFFFEE7F8B50D4600262988052933D123
:1043C00042788478C17844EA02240279641C52EA73
:1043D000012229D0B2F5FA6F26DA2E800121017070
:1043E0002B885B1C12F007012B8005D0930802EB91
:1043F0005377FF087F1C03E0910802EB5177FF0819
:10440000477000232988491C2980801CA1B2FFF72E
:1044100078FD010003D0FFF757FE064605E0288827
:10442000FFB23F182F8000E003263046F2BD38B5BA
:1044300009880025052921D142788478017944EA48
:104440000224641CD1B9C178FF2918BF002915D1F5
:104450008DF80150C078FF2806BF01218DF80010AB
:104460008DF8005001230122A1B26846FFF749FDF3
:10447000010004D0FFF728FE054600E0032528468A
:1044800032BDF8B50D460026298805292CDD427875
:104490008478C178437944EA02240279641C42EAB0
:1044A000012212F0070105D0970802EB5771C908E5
:1044B000491C03E0910802EB5171C908A2B140F216
:1044C000B177BA4210DAC9B299420DD10123A1B233
:1044D000801DFFF716FD010003D0FFF7F5FD06462E
:1044E00003E00520288000E003263046F2BD704737
:1044F000FEE7FEE7FEE7FEE7FEE770471648FDF73A
:10450000F7BF10B5154C206882B001688A0606D541
:10451000216D2046884721686FF02000086000F078
:1045200021F844BF6FF04002026013BD10B50C4C7F
:10453000206882B001688A0606D5216D204688472A
:1045400021686FF02000086000F00CF844BF6FF0A5
:104550004002026013BD0000503600205C2F002096
:10456000D02F0020206801680A0707D54168002283
:1045700000920368009341680091009A01684A061E
:104580007047704770B51F4D2868F0B100F03CF8D7
:104590000446002000F03AF8012C064605DB3046C0
:1045A000FFF7F7FE361D641EF9D12846FFF7ADFE72
:1045B000281DFFF7AAFE05F10800FFF7A6FE05F18A
:1045C0000C00BDE87040FFF7A0BE70BD70B50024C0
:1045D0000C4D05EB8400FFF77EFE641C042CF8DB19
:1045E00000F012F80546002000F010F806460024FE
:1045F00004E006EB8400FFF79AFE641CAC42F8DB93
:1046000070BD0000343700200820704701000348C7
:104610001CBF897800EB810070470000FC36002049
:1046200070B50C4600252188052932D1427883785F
:10463000C17843EA022302795B1C52EA012228D0A6
:10464000B2F5FA6F25DA2580022101702688761CE2
:1046500012F00701268005D0960802EB5676F60880
:10466000761C03E0910802EB5176F6084670801C38
:104670002188491C218099B2FFF7A8FC010003D0D2
:10468000FFF722FD054605E02088F6B236182680A1
:1046900000E00325284670BD70B50D460026298828
:1046A000052926D142788178047941EA0221C2782D
:1046B000491C54EA02241CD07D2C1ADA2E800422D4
:1046C000027063002A88521C2A80437089B22A88AB
:1046D000521C2A80801C2246FFF7C0FB010003D039
:1046E000FFF7F2FC064605E0288800EB440028802E
:1046F00000E00326304670BD64656661756C7454D5
:1047000061736B006D795461736B3032000000008F
:104710006D795461736B3033000000006D79517511
:1047200065756530310000006D7954696D657230D2
:10473000310000006D794576656E743031000000FF
:1047400019E050F8042BD30744BFA9F101039A18CC
:10475000091F0023042942F8043BF9D25FEA817C57
:10476000134604D54FF0000CA2F800C09B1CC907EB
:1047700044BF0021197050F8041B0029E1D1704793
:1047800030B5016884684218416802EB5103C907DB
:104790000BD54C4409E012F9011B12F8015B00290A
:1047A00004F8015B05D5491CF9D19A42F3D10C30CC
:1047B00030BD491EF1D5F8E710B5074979441831E5
:1047C000064C7C44163404E00A68081D11448847EE
:1047D0000146A142F8D110BD0800000024000000ED
:1047E00061FFFFFFEC3100008805002000000000A1
:1047F00091FFFFFF6C010000D000000000000020CE
:1048000038B50C4605490D8C2A46401CFDF7A8FA20
:104810006D1C2580002032BD00000000D83600202D
:1048200000F00BF8002801D0FFF7C6FF0020AFF31F
:104830000080FDF73DFF00F002F80120704700F016
:1048400001B870470746FFF79DFE384600F002F8B2
:10485000FBE7704780B5AFF30080024A11001820D3
:10486000ABBEFBE7260002006D795461736B536C9D
:10487000617665006D794576656E743033000000B1
:104880007047000000000000000000000102030467
:104890000607080901488047014800478148000889
:1048A000B14800086D794576656E743032000000BD
:1048B000AFF30080AFF30080FFF7B2FF000000000D
:1048C00001020304FFF7FEBFFFF7FEBFFFF7FEBFC5
:1048D000FFF7FEBFFFF7FEBFFFF7FEBFFFF7FEBF0C
:1048E000FFF7FEBFFFF7FEBFFFF7FEBFFFF7FEBFFC
:1048F000FFF7FEBFFFF7FEBFFFF7FEBFFFF7FEBFEC
:10490000FFF7FEBFFFF7FEBFFFF7FEBFFFF7FEBFDB
:10491000FFF7FEBFFFF7FEBFFFF7FEBFFFF7FEBFCB
:10492000FFF7FEBFFFF7FEBFFFF7FEBFFFF7FEBFBB
:10493000FFF7FEBFFFF7FEBFFFF7FEBFFFF7FEBFAB
:10494000FFF7FEBFFFF7FEBFFFF7FEBFFFF7FEBF9B
:10495000FFF7FEBFFFF7FEBFFFF7FEBFFFF7FEBF8B
:10496000010002D6000011FD00040148000804FD0A
:1049700000049946000803FD00046341000810FD8F
:1049800000041341000806FD0004E140000817FD83
:104990000004C541000801FD0004B543000805FD01
:1049A00000042F4400080FFD00048344000802FDAA
:1049B000000321460008CC00FCAAFC000001F9001D
:0849C0000010FC000224F400C9
:04000005080048B1F6
:00000001FF
